:020000040000FA
:1000000000020010E5000000ED000000EF0000001D
:10001000F1000000F3000000F50000000000000007
:10002000000000000000000000000000F7000000D9
:10003000F900000000000000FB000000FD000000CF
:10004000FF000000FF000000FF000000FF000000B4
:10005000FF000000FF000000FF000000FF000000A4
:10006000FF000000FF000000FF000000FF00000094
:10007000FF000000FF000000FF000000FF00000084
:10008000FF000000FF000000FF000000FF00000074
:10009000FF000000FF000000FF000000FF00000064
:1000A000FF000000C3340000FF000000FF0000005C
:1000B000FF000000FF000000FF000000FF00000044
:1000C000FF000000FF000000FF000000DFF810D07C
:1000D00003F036FB00480047E1350000AFF3008035
:1000E000000200100648804706480047FEE7FEE78A
:1000F000FEE7FEE7FEE7FEE7FEE7FEE7FEE7FEE7D8
:100100002D040000CD00000010B50A46202801D2C1
:10011000034601E0A0F120031946202810D2454BE8
:100120001B6803248C40A343434CC4F8A831414BC3
:100130001B6802FA01F423433F4CC4F8A83111E0D4
:100140003C4B1B1D1B6803248C40A3433A4CC4F852
:10015000AC31384B1B1D1B6802FA01F42343364CAB
:10016000C4F8AC3110BD0146202903D20A46314BF8
:10017000186804E0A1F120022E4B1B1D186820FA1C
:1001800002F303F00300704770B506462B4804687D
:100190003046FFF7E8FF054635B1012D06D0022DA8
:1001A00006D0032D08D105E0042505E0012503E074
:1001B000022501E0082500BF00BFB4FBF5F420468E
:1001C00070BD012909D11C4AC43212681C4B03407E
:1001D0001A43194BC3F8C42009E041B9164AC43286
:1001E0001268174B83431A40134BC3F8C42070475F
:1001F00000201149C031086030BF70470420114908
:10020000086008200C49C031086030BF70470420E6
:100210000C49086009200849C031086030BF7047A8
:1002200004200849086003200349C031086030BF3A
:1002300070470000A8C10F4000C00F4000C0072059
:10024000DEF7EFEF10ED00E02DE9F05F054600204E
:1002500092469B4688460646814640241BE0284637
:1002600041464746224600F02FF853465A46C01AE8
:10027000914110D311461846224600F016F82D1A67
:1002800067EB01084F4622460120002100F00DF8DF
:1002900017EB00094E41201EA4F10104DFDC4846A3
:1002A00031462A464346BDE8F09F202A04DB203A27
:1002B00000FA02F1002070479140C2F1200320FAB9
:1002C00003F3194390407047202A04DB203A21FAB7
:1002D00002F00021704721FA02F3D040C2F120025F
:1002E000914008431946704702E008C8121F08C130
:1002F000002AFAD17047704700000000FFFFFFFF9F
:1003000097480068C0F3016003285DD194488430A9
:10031000006800F0030030B1012820D0022839D055
:10032000032850D100E000BF8D480068C0F30E00E4
:10033000401C40008B49484389498839D1F88810CE
:10034000C1F30741491CB0FBF1F185487C300068DE
:10035000C0B2401CB1FBF0F08349086033E0804834
:100360000068C0F30E00401C4000804948437C49AF
:100370008839D1F88810C1F30741491CB0FBF1F16D
:1003800077487C300068C0B2401CB1FBF0F0764981
:10039000086018E072480068C0F30E00401C0104B9
:1003A0006F488838D0F88800C0F30740401CB1FB84
:1003B000F0F16B487C300068C0B2401CB1FBF0F03B
:1003C0006949086000BF30E065488430006800F08B
:1003D000030030B1012810D0022819D0032823D1FE
:1003E00000E000BF5E487C300068C0B2401C5D4940
:1003F000B1FBF0F05C49086016E059487C300068B9
:10040000C0B2401C5949B1FBF0F0574908600BE0FD
:1004100053487C300068C0B2401C4FF40041B1FB2F
:10042000F0F05149086000BF00BF704720205049DC
:1004300008604B488838D0F8A00100F0200030B1A7
:1004400000BF4B48006800F040000028F9D00320AE
:1004500043497C310860002041498839C1F8A8012E
:1004600043490C31086001203D498431086041480E
:100470003B49091F0860AA203949091D0860552019
:1004800008600120364908390860AA203449091D4E
:100490000860552032498839C1F88C0000BF3048C7
:1004A000006800F080600028F9D003202C4908394A
:1004B0000860AA202A498839C1F88C0055202849AB
:1004C000091D086000BF2648006800F04070002841
:1004D000F9D0232022491C310860AA2020498839FC
:1004E000C1F8AC0055201E492431086001201C4988
:1004F00018310860AA201A4924310860552018498B
:100500008839C1F8AC0000BF15482030006800F4FD
:1005100080600028F8D00320114918310860AA2013
:100520000F498839C1F8AC0055200D4924310860C5
:1005300000BF0B482030006800F440700028F8D05D
:100540000D4807493C310860002005498839C1F849
:10055000C80143F23A00086000200849086070476B
:1005600088C00F4000093D0000C00720001BB700F5
:10057000A0C10F4063000500DE87280408ED00E0FD
:100580002DE9F84F05460E46002700200090FE4852
:10059000854202D0FD48854200D103E05521FCA0F0
:1005A00003F020F8F848854204D11A20FFF7ECFD4B
:1005B000009003E01C20FFF7E7FD00900098B0FBDF
:1005C000F6F74FF0010A18241CE0B7FBF4F004FB27
:1005D0001070A8B9B7FBF4F0A0F1010B601EC4B213
:1005E000032094FBF0F0401E00F0FF09032094FB71
:1005F000F0F0201A401E00F0FF084FF0000A03E060
:10060000A01EC4B2002CE0DC00BFBAF1000F01D084
:1006100000BFFEE7012028604FEA095040EA084089
:1006200040F4404040EA0B00686100202860BDE8CB
:10063000F88F2DE9F04104460E46D348844202D09B
:10064000D248844200D103E09221D1A002F0CAFF37
:10065000CD48844204D101214803FFF7B2FD03E0F5
:1006600001218803FFF7ADFD02211A20FFF74CFDA1
:1006700002211C20FFF748FD02211E20FFF744FD48
:100680000120206000202061A0600E206060E768EB
:10069000002020600120C9490860002505E00020F5
:1006A000C74A42F82500681C85B2B5F5007FF6DB25
:1006B0000020C24948608860C860086148610860DD
:1006C00031462046FFF75CFFBDE8F08110B50446D7
:1006D000AD48844202D0AD48844200D103E0CA2133
:1006E000ABA002F07FFFA848844205D100214FF45F
:1006F0000050FFF766FD04E000214FF48040FFF753
:1007000060FD10BD2DE9F34F89B00C460025AB49C3
:100710000998884200D103E0EC219DA002F062FF1D
:10072000012109980160206818B90020A5490870C6
:10073000B0E00120A34908704FF00009A6E0681C52
:10074000402803DD02200BB0BDE8F08F206806785A
:100750002068B0F80280206847780EB9012000E0D8
:100760000020012E01D1012100E00021084300B149
:1007700004E040F2011186A002F034FF4FEAE820C5
:1007800000B904E04FF4817181A002F02BFF0FB992
:10079000012000E00020012F01D1012100E0002113
:1007A000084300B104E040F2031179A002F01AFFFF
:1007B0004FF0000B8448007800F0010088BB85B141
:1007C000681E7F4951F8200005904EF2FF71059890
:1007D0000840079048EA46310798814201DA05202F
:1007E000B1E7700740EA077040EA084040F0006B4C
:1007F000734951F8250080B20A4642F8250051F8A5
:10080000250040EA0B0042F825006F480088401C94
:100810006D49088020790988884230D1681C85B2EA
:100820002DE0FFE7664951F8250005904EF2FF7173
:10083000059801EA1040079048EA4631079881423E
:1008400001DA05207FE7700340EA073040EA08003C
:1008500040F4006B5A4951F825006FF30F000A4627
:1008600042F8250051F8250040EA0B0042F8250027
:10087000681C85B254480088401C53490880206891
:10088000001D206009F101001FFA80F92079484518
:100890003FF755AFA068002873D04FF00009C9E0BA
:1008A000681CB0F5007F01DD02204CE7A0680678E7
:1008B000A068B0F80280A06847780EB9012000E077
:1008C0000020012E01D1012100E00021084300B1E8
:1008D00004E040F237112EA002F084FE4FEAE82037
:1008E00000B904E04FF49C7129A002F07BFE0FB91F
:1008F000012000E00020012F01D1012100E00021B2
:10090000084300B104E040F2391121A002F06AFE70
:100910004FF0000B2D48007800F0010090BB2B48F1
:10092000008880B1681E264951F8200005904EF2DB
:10093000FF7105980840079048EA463107988142C0
:1009400001DA0520FFE6700740EA077040EA084B2D
:100950001B4951F8250080B20A4642F8250051F89B
:10096000250040EA0B0042F8250018480088401C8A
:1009700016490880207B0988884254D1681C85B2BA
:1009800051E05BE024E000000040044000800440AF
:100990002E2E5C2E2E5C2E2E5C2E2E5C44726976E2
:1009A0006572735C736F757263655C6C706331370D
:1009B00078785F63616E2E630000000000C0034022
:1009C0000080034004C0072006C0072008C007209D
:1009D000FE4951F8250005904EF2FF71059801EA95
:1009E0001040079048EA46310798814201DA052015
:1009F000A9E6700340EA073040EA080BF34951F8D2
:100A000025006FF30F000A4642F8250051F8250033
:100A100040EA0B0042F82500681C85B2EC480088CB
:100A2000401CEB490880A068001DA06009F101008E
:100A30001FFA80F9207B48453FF732AF2069002834
:100A400072D04FF00009B2E0681CB0F5007F01DD04
:100A5000022078E620690678206990F804A02069D1
:100A6000477820694079089020694088049020697F
:100A7000C08803900EB9012000E00020012E01D1B2
:100A8000012100E00021084300B105E040F27111AE
:100A9000AFF2041002F0A6FDBAF1000F01D101205F
:100AA00000E00020BAF1010F01D1012100E0002196
:100AB000084300B105E04FF4B971AFF22C1002F019
:100AC00091FD0FB9012000E00020012F01D101218B
:100AD00000E00021084300B105E040F27311AFF2DD
:100AE000501002F07FFD089808B9012000E00020B6
:100AF0000899012900D100E00021084300B105E078
:100B00004FF4BA71AFF2781002F06CFD0498C01285
:100B100000B905E040F27511AFF28C1002F062FDF1
:100B20000398C01208B906E045E04FF4BB71AFF27C
:100B3000A01002F057FD4FF0000BA6480088B8B196
:100B4000681EA24951F8200005904EF2FF710598E9
:100B500008400790564509D1DDE90310884205DCBD
:100B6000049840EA46310798814201DA0520EAE517
:100B7000700740EA0771049841EA004040EA4A31B0
:100B8000089841EA0030039940EA010B8F4941F887
:100B900025B090480088401C8E490880681C85B2AA
:100BA00020690830206109F101001FFA80F9207DD9
:100BB00048453FF749AFA069C8B34FF0000948E086
:100BC000681CB0F5007F01DD0220BCE5A06940682B
:100BD0000690A06906780698400F00B905E04FF42A
:100BE000CC71AFF2542002F0FDFC0EB9012000E000
:100BF0000020012E01D1012100E00021084300B1B5
:100C000005E040F29911AFF2782002F0EBFC069873
:100C100040EA467B7048008850B1681E6B4951F825
:100C2000200005900598584502D905208BE513E072
:100C3000664941F825B068480088401C664908802C
:100C4000681C85B2A0690830A06109F101001FFA93
:100C500080F9207F4845B3DC206A00287ED04FF021
:100C6000000983E0A81CB0F5007F01DD02206AE5E1
:100C7000206A0678206A90F801A0206A40680290F5
:100C8000206A806801900EB9012000E00020012E4A
:100C900001D1012100E00021084300B105E040F24C
:100CA000BB11AFF2143002F09DFCBAF1000F01D17C
:100CB000012000E00020BAF1010F01D1012100E084
:100CC0000021084300B105E04FF4DE71AFF240307F
:100CD00002F088FC0298400F00B905E040F2BD1117
:100CE000AFF2543002F07EFC0198400F00B905E0ED
:100CF0004FF4DF71AFF2683002F074FC4FF0000B7C
:100D00003648008890B1681E304951F8200005909F
:100D1000564509D1DDE90110884205D8029840EA1C
:100D200046710598814201D205200CE5029840EAFF
:100D3000467B2846691C8DB2244941F820B00198B1
:100D400040EA4A7B2846691C8DB2204941F820B010
:100D500022480088401C2149088000E00BE0206AFE
:100D60000C30206209F101001FFA80F994F8240088
:100D700048453FF777AF1A480088401C4010800074
:100D8000184948600846416811480088401C4010D6
:100D900001EB800013498860084680680D49098886
:100DA00000EB81000F49C8600846C0680A490988FD
:100DB00000EB81000B490861084600690749098872
:100DC00000EBC1000749486107480FE0008003407D
:100DD00008C007200AC007200CC007200EC007204B
:100DE00006C0072000C0034004C00720007810B9E7
:100DF0000020086002E00420FB4908600120A2E412
:100E00002DE9FC5F80460D469346002001900027A7
:100E100081460024002682460090F448804502D096
:100E2000F348804500D105E04FF4FC71AFF2A040DB
:100E300002F0D8FBBBF1000F02D0BBF1010F00D1D3
:100E400005E040F2F911AFF2B84002F0CBFBE74801
:100E5000804502D10020019004E0E548804501D1A1
:100E600001200190E348008800EB4001E148008840
:100E7000401C01EB6001E0480088401C01EB600071
:100E8000DE4909880844DE4909880844DD490988A3
:100E900000EB410000B200900098B0F5007F02DB4B
:100EA0000220BDE8FC9F0120CF490860BBF1000F84
:100EB00074D1C5F30A05019845EA4035CE4800785B
:100EC00000F0010000BBCB480088401C4110CA481C
:100ED0000088401C01EB600004B20098001B0FFA70
:100EE00080FAC94951F8247007E0601C04B2C64971
:100EF00051F8249041F824704F46BAF10000AAF14D
:100F000001010FFA81FAF0D1BB48008860B9B948F5
:100F10000088401C401006B24FF6FF7040EA0540C2
:100F2000B94A42F82600ABE0B3480088012821D135
:100F3000B0480088401C401006B2B34951F8260062
:100F40004EF2FF7101EA1040A84209D9AE4951F8AA
:100F50002600000C40EA05400A4642F826008FE0D1
:100F6000A94951F826006FF30F0028430A4642F8BA
:100F7000260085E09F480088401C401004B29E482F
:100F8000008806B29B480088401C41109A4800889F
:100F9000401C01EB60000FFA80FA1BE087E09A49E1
:100FA00051F824004EF2FF7101EA1040A84202D924
:100FB000600006B210E0944951F824004EF2FF712F
:100FC0000840A84204D9012000EB440006B203E027
:100FD000601C04B25445E2DB00BF544516D186487C
:100FE000007800F0010038B94FF6FF7040EA054084
:100FF000854A42F8240043E0834951F824006FF306
:101000000F0028430A4642F8240039E07E4951F88F
:10101000247006F0010018B9280440EA174903E0DB
:10102000380C000440EA0509774941F824907148DA
:101030000088401C411070480088401C01EB600093
:10104000401E0FFA80FA0CE0601C04B26E4951F8A1
:1010500024904FEA194040EA07400A4642F824002B
:101060004F465445F0DB6448007800F0010038B981
:101070004FF6FF7000EB0741601C634A42F82010F6
:101080005D480088401C5C49088057488068001D06
:10109000554988600846C068001DC8600846006958
:1010A000001D086108464069001D486142E0019842
:1010B00045EA4075514801884F480088401C01EBC3
:1010C00060014C480088401C01EB600004B200261F
:1010D00009E04D4951F82400A84200D907E0601CFE
:1010E00004B2701C06B2464800888642F1DB00BF9D
:1010F000454951F8247041F8245041480088401C6B
:101100003F490880DDF800A009E0601C04B2701CB3
:1011100006B23D4951F8249041F824704F46564597
:10112000F3DB31480069001D2F490861084640691A
:10113000001D48612F48008818B900202A4908601E
:1011400002E00420284908600120AAE62DE9F04FBA
:1011500087B006460D460020069000278046059081
:1011600004900390029000248346814682461F48E3
:10117000864202D01E48864200D105E040F2CA21D4
:10118000AFF2F47002F02EFA1848864202D1002025
:10119000069004E01648864201D1012006901548C9
:1011A000008800EB400113480088401C01EB6001FF
:1011B00011480088401C01EB600010490988084470
:1011C0000F49098808440F49098800EB41000FFACC
:1011D00080FABAF5FE7F03DA06480088402815DB5E
:1011E000022007B0BDE8F08F00C00340004004407B
:1011F0000080044006C0072008C007200AC007205E
:101200000CC007200EC00720008003400120F849D1
:101210000860C5F30A05C914069841EA403028431E
:1012200085B2F448007800F00100C8B9BAF1000FA7
:1012300016D0F04800884410D146EF4951F8247088
:1012400007E0601C04B2EC4951F8248041F8247096
:101250004746B9F10000A9F101010FFA81F9F0D177
:10126000E448008830B94FF6FF7040EA0540E24993
:101270000860A8E0DF480088012817D1DE48006830
:101280004EF2FF7101EA1040A84207D9DA4800681F
:10129000000C40EA0540D849086094E0D648006850
:1012A0006FF30F002843D44908608CE00024D14834
:1012B00000880FFA80FBCF480088401E40100FFACC
:1012C00080F92FE0CC4951F824004EF2FF7101EA79
:1012D00010400190C84951F824004EF2FF7101EA14
:1012E00010414EF2FF702840814203D960000FFA8E
:1012F00080FB19E0C04951F824004EF2FF7108400C
:101300000190BD4951F824004EF2FF710840294078
:10131000884205D9012000EB44000FFA80FB03E06E
:10132000601C04B24C45CDDD00BF4C4516DDB14814
:10133000007800F0010038B94FF6FF7040EA054030
:10134000AD4A42F824003EE0AB4951F824006FF367
:101350000F0028430A4642F8240034E0A64951F819
:1013600024700BF0010018B9280440EA174803E084
:10137000380C000440EA05089F4941F824809D4844
:1013800000884FEA60090CE0601C04B29A4951F8E9
:1013900024804FEA184040EA07400A4642F82400F9
:1013A00047464C45F0DB9348007800F0010050B907
:1013B000914951F824006FF30F004FF6FF71084474
:1013C0008D4A42F824008B480088A0EB0B000FFAEE
:1013D00080F98848008800EB4000AAEB00000BEB86
:1013E0004B010844401C04B2834951F82470601C2E
:1013F00051F82080A01C51F8200005900021A01C6D
:101400007D4A42F82010601C42F8201042F8241057
:10141000E01C04B21CE0784951F824000490601CE0
:1014200051F820000390A01C51F82000029041F8D0
:101430002470601C41F82080A11C6F4A059842F876
:101440002100049FDDF80C8002980590E01C04B296
:10145000B9F10000A9F101010FFA81F9DBD165486A
:101460000088401C6349088061484068001D60494D
:10147000486008468068001D88600846C068001DF6
:10148000C86008460069001D086108464069001DE3
:101490004861042008600120A3E62DE9FF4F85B0D4
:1014A0000F4690464FF0000B54490598884203D0F0
:1014B00053490598884200D105E040F28731AFF6E4
:1014C000303002F08FF8089810B10898012800D148
:1014D00005E04FF46271AFF6483002F083F84745FB
:1014E00003D9062009B0BDE8F08F44490598884229
:1014F00002D14FF0000B01E04FF0010B3D48008896
:1015000000EB40013B480088401C01EB60013D4876
:101510000088401C01EB60003B49098808443B49B6
:10152000098808443A49098800EB410000B201905B
:1015300001202F4908600898002858D10198B0F57B
:10154000007F01DB0220CDE7C7F30A07C8F30A08D2
:101550004FEA4B7040EA074040EA4B3040EA08054A
:1015600024480088401C411026480088401C01EB9C
:10157000600004B22448008818B91F4941F824507B
:1015800067E01C480088401C41101E480088401C31
:1015900001EB60001C490988084406B23CE001E008
:1015A000601C04B2144951F82400400FB0EB557F81
:1015B000F6D351F8249051F82400400FB0EB557F3A
:1015C00002D941F8245029E0C9F30A400390C9F335
:1015D0000A0002900398804503D8074941F8245037
:1015E0001CE00298874215D3601C04B214E043E06B
:1015F00000C0034006C007200080034000400440B4
:101600000080044008C007200AC007200CC0072043
:101610000EC00720062065E7B442C0DB00BFB4421D
:1016200004DBFE4951F8249041F824500198001B36
:1016300006B209E0601C04B2F84951F82400049095
:1016400041F82490DDF81090301EA6F101010EB291
:10165000F0D1F3480088401CF1490880F148C06887
:10166000001DF049C86008460069001D0861084671
:101670004069001D4861AEE00198B0F5FF7F01DDD3
:1016800002202FE727F0604728F0604847EA4B75B3
:1016900048EA4B7AE4480088401C4110E34800883F
:1016A000401C01EB6000DE4909880844E0490988D4
:1016B000084404B2DF48008830B9D84941F82450C2
:1016C000601C41F820A07CE0D7480088401C4110F5
:1016D000D6480088401C01EB6000D14909880844C5
:1016E000D34909880844D349098800EB410006B270
:1016F00037E001E0601C04B2C84951F82400BBEB9C
:10170000507FF7D851F82490601C51F820000490C5
:1017100051F82400400FB0EB557F07D941F8245011
:10172000601C00B2044641F820A01CE029F0604093
:101730000390049820F0604002900398804508D8F8
:10174000B64941F82450601C00B2044641F820A07C
:1017500009E00298874202D3A01C04B201E00620EF
:10176000C0E6B442C5DB00BFB4420DDBAB4951F863
:101770002490601C51F82000049041F82450601C13
:1017800000B2044641F820A00198001B401C06B29C
:10179000601C04B213E0A14951F82450601C51F8B8
:1017A00020A041F82490611C9C4A049842F8210032
:1017B000A946CDF810A0A01C04B2B01E06B2002E9F
:1017C000E9DC9C480088401C9A490880954840699B
:1017D000083094494861042092490860012081E65C
:1017E0002DE9F04780460D46B8F1000F0BD0B8F157
:1017F000010F08D0B8F1020F05D0B8F1030F02D0E5
:10180000B8F1040F00D105E04FF48A61AFF68060B3
:1018100001F0E8FE002D03DBB5F5007F00DA05E0FE
:1018200040F25141AFF6986001F0DCFE01207D49A5
:1018300008607D480088401C41107C480088401C9E
:1018400001EB600076490988084479490988084411
:101850007849098800EB41001FFA80FAB8F1000FBF
:101860007ED17148008818B16F480088854202DB3C
:101870000720BDE8F0876C10684951F824906A4849
:101880000088401B401EC0F34F0605F0010098B9C8
:101890000CE0601C614951F82070380C40EA0940A6
:1018A0000A4642F82400B946601C84B2301EA6F1F4
:1018B00001018EB2EDD11CE016E0601C574951F8D1
:1018C00020704FEA19404FEA004040EA17400A46AC
:1018D00042F82400601C51F820000104601C42F80A
:1018E00020104FEA074984B2301EA6F101018EB2E2
:1018F000E3D14D48007800F0010090B905F00100F7
:1019000038B94FF6FF7000EB0940444A42F8240012
:1019100039E04FF6FF7049EA0000404A42F82400DF
:1019200031E041480088401C44103F48008800EBEB
:101930004000504486B208E0384951F82410601E37
:10194000364A42F82010601C84B2A642F4DC002122
:10195000601E324A42F8201032484068001F00E002
:101960003DE03049486008468068001F88600846AE
:10197000C068001FC86008460069001F086108466B
:101980004069001F486128480088401E2649088099
:1019900005EB4500504484B208460088401B401CBB
:1019A00000EB400086B217E0E01C1C4951F8200013
:1019B0000A4642F82400201D51F82010601C42F80D
:1019C0002010601D114651F82010A01C42F8201074
:1019D000F01E86B2E01C84B2002EE5D164E1B8F1BD
:1019E000010F73D11148008818B110480088854252
:1019F00001DB07203DE70C480088401C401000EB4D
:101A0000650084B2054951F8249008480088401BBD
:101A1000401EC0F34F0605F001000DE000800340BA
:101A20000AC0072000C0034006C0072008C00720E6
:101A30000CC007200EC0072098B90CE0601CFD49BF
:101A400051F82070380C40EA09400A4642F8240058
:101A5000B946601C84B2301EA6F101018EB2EDD1F0
:101A60001CE016E0601CF34951F820704FEA194061
:101A70004FEA004040EA17400A4642F82400601C42
:101A800051F820000104601C42F820104FEA074979
:101A900084B2301EA6F101018EB2E3D1E64800788F
:101AA00000F0010098B905F0010038B94FF6FF7059
:101AB00000EB0940DF4A42F824003AE04FF6FF709D
:101AC00049EA0000DB4A42F8240032E037E0DB4814
:101AD0000088401C4110D8480088401C01EB600081
:101AE00084B2D648008800EB4000504486B208E03B
:101AF000D04951F82410601ECE4A42F82010601CD4
:101B000084B2A642F4DC0021601ECA4A42F82010CA
:101B1000CB488068001FCA4988600846C068001F1B
:101B2000C86008460069001F086108464069001F38
:101B30004861C1480088401EBF490880B4E0B8F140
:101B4000020F3ED1BF48008818B1BE4800888542C8
:101B500001DB07208DE6B9480088401C4110B648DB
:101B60000088401C01EB60002844401C84B2B3484C
:101B7000008800EB4000504486B208E0AD4951F8BF
:101B80002410601EAB4A42F82010601C84B2B4429C
:101B9000F4DB0021601EA74A42F82010A948008803
:101BA000401EA8490880A648C068001FA449C86014
:101BB00008460069001F086108464069001F486127
:101BC00072E0B8F1030F3DD19F48008818B19E48DC
:101BD0000088854201DB07204BE698480088401CBE
:101BE000411095480088401C01EB60009549098828
:101BF00008442844401C84B29048008800EB400010
:101C0000504486B208E08B4951F82410601E894A7E
:101C100042F82010601C84B2B442F4DB0021601E44
:101C2000844A42F8201088480088401E864908806F
:101C300083480069001F8249086108464069001F07
:101C4000486131E08148008818B1804800888542A9
:101C500001DB07200DE67D480088AAEB400000EB81
:101C6000450084B27548008800EB4000504486B2BD
:101C70000EE0A01C6F4951F820000A4642F82400EB
:101C8000E01C51F82010601C42F82010A01C84B207
:101C9000B442EEDB6D480088401E6C4908806848FD
:101CA0004069083866494861042065490860012098
:101CB000DFE570B504460D466548844202D06548AC
:101CC000844200D104E040F23F51634801F08AFCB5
:101CD000687B10B1687B012800D104E04FF4A86153
:101CE0005D4801F07FFC687B48B92868C00A00B9EC
:101CF0000EE040F24351584801F074FC08E02868B7
:101D0000400F00B904E040F24751534801F06AFC2B
:101D1000287B001100B904E040F249514E4801F01F
:101D200061FCA87B10B1A87B012800D104E040F23F
:101D30004A51494801F056FCE06900F00400E0B364
:101D4000206B20F470202063206B297B40EA014047
:101D50002063A87B012804D1206B40F080402063E1
:101D600003E0206B20F080402063687B012804D1D1
:101D7000206B40F00040206303E0206B20F0004027
:101D80002063286860632979687941EA0021A8798D
:101D900041EA0041E87941EA0066A663297A687A57
:101DA00041EA0021A87A41EA0041E87A41EA006666
:101DB000E66321206060012070BDFFE7E06900F468
:101DC0008060B0B3206C20F470202064206C297BEC
:101DD00040EA01402064A87B012804D1206C40F037
:101DE0008040206403E0206C20F080402064687B09
:101DF000012804D1206C40F00040206403E0206CF6
:101E000020F000402064286860642979687941EAFC
:101E10000021A87941EA0041E87941EA0066A66418
:101E2000297A687A41EA0021A87A41EA0041E87AF1
:101E300014E01AE00080034008C0072006C0072015
:101E400000C003400AC007200CC007200EC00720B6
:101E500000400440008004409009000041EA006610
:101E6000E664412060600120A6E7E06900F480207C
:101E7000E0B3206D20F470202065206D297B40EABE
:101E800001402065A87B012804D1206D40F08040EE
:101E9000206503E0206D20F080402065687B0128EC
:101EA00004D1206D40F00040206503E0206D20F05B
:101EB00000402065286860652979687941EA002139
:101EC000A87941EA0041E87941EA0066A665297AE5
:101ED000687A41EA0021A87A41EA0041E87A41EAB9
:101EE0000066E66581206060012065E7FFE700206D
:101EF00062E770B505460C46F848854202D0F848BE
:101F0000854200D104E040F2D951F64801F06AFB65
:101F1000E86900F00100002825D0286AC00F60732E
:101F2000286AC0F38070A073286AC0F3034020734E
:101F3000686A2060A07B90B9AE6A2671310A61712F
:101F4000310CA171310EE171EE6A2672310A6172B3
:101F5000310CA172310EE1720420686005E00420AA
:101F60006860012070BD0020FCE70120FAE72DE940
:101F7000F35F0C46DC490098884200D104E040F24F
:101F80001B61D84801F02EFB0027D748406A30B1CA
:101F9000D548476A4FF000094FF01F0A08E0D248C1
:101FA000806A28B1D048876A4FF020094FF03F0A75
:101FB000002F47D04FF00008C84641E007F0010B62
:101FC0007F08BBF1000F39D0C7484069C7490844B2
:101FD00008EB480100EB8105286800F04070B0F183
:101FE000407F2BD1286820F0407028602D1D2E687E
:101FF0002671310A6171310CA171310EE1712D1D13
:102000002E682672310A6172310CA172310EE172B2
:10201000083D2888C0F30A0020602868C0F3034008
:102020002073002060732868C0F38070A073286854
:1020300000F0407010B90120BDE8FC9F08F10108D4
:10204000D045BBD90320F7E770B504460D46A34839
:10205000844202D0A248844200D104E040F271617F
:10206000A04801F0BFFA2DB1012D03D0022D01D0FF
:10207000032D00D104E040F272619A4801F0B2FAF7
:1020800025B1012D04D0022D06D103E0A06870BD5A
:10209000E068FCE7A069FAE7E069F8E770B5044694
:1020A0000D469348844200D104E040F28F618D4890
:1020B00001F098FA1DB1012D01D0022D00D104E0EC
:1020C0004FF4D261874801F08DFA15B1012D04D18A
:1020D00001E0206870BD6068FCE7A068FAE770B5B1
:1020E00005460C4616467D48854202D07C4885420E
:1020F00000D104E04FF4D7617A4801F073FAACB133
:10210000012C13D0022C11D0032C0FD0042C0DD095
:10211000052C0BD0062C09D0072C07D0082C05D095
:10212000092C03D00A2C01D00B2C00D104E040F282
:10213000B9616C4801F056FA0EB1012E00D104E0ED
:1021400040F2BA61674801F04DFA012E0ED10B2C16
:1021500006D101206449086008620420086013E089
:1021600028690121A140084328610DE00B2C06D10C
:1021700001205D49086008620020086004E02869C9
:102180000121A1408843286170BD70B505460C4609
:102190005548854200D104E040F2DF61514801F02A
:1021A00021FA2CB1012C03D0022C01D0032C00D138
:1021B00004E04FF4DC614B4801F014FA34B1012C17
:1021C00007D0022C08D0032C0CD108E00020286096
:1021D00008E00120286005E00220286002E00420D9
:1021E000286000BF00BF70BD70B504460D4616469E
:1021F0003A48844202D03A48844200D104E04FF485
:10220000E161384801F0EEF96DB1012D0BD0022DDE
:1022100009D0032D07D0042D05D0052D03D0062DA0
:1022200001D0072D00D104E040F209712D4801F0E2
:10223000D9F90EB1012E00D104E040F20A7129480B
:1022400001F0D0F9082D79D2DFE805F00407132753
:102250003B54606C0020206070E0012E04D12068A7
:1022600040F00100206003E0206820F001002060C1
:1022700064E0206840F001002060012E04D1206855
:1022800040F00200206003E0206820F0020020609F
:10229000206820F00100206050E0206840F001003C
:1022A0002060012E04D1206840F00400206003E08B
:1022B000206820F004002060206820F001002060E9
:1022C0003CE0012E04D1206840F00800206003E0CB
:1022D000206820F00800206030E00000004004404A
:1022E000008004409009000000C0034000800340CB
:1022F00000000440012E04D1206840F0100020604E
:1023000003E0206820F01000206017E0012E04D1C7
:10231000206840F02000206003E0206820F02000CA
:1023200020600BE0012E04D1206840F08000206086
:1023300003E0206820F08000206000BF00BF70BD77
:1023400070B504460D462548844202D02448844294
:1023500000D104E040F25371224801F043F9606873
:102360002843606070BD10B504461C48844202D00A
:102370001B48844200D104E04FF4EC61194801F09D
:1023800031F9E06810BD10B504461748844200D109
:1023900004E040F26D71134801F024F9206A08B19D
:1023A000012010BD0020FCE770B504460D460E4824
:1023B000844200D104E040F27D710A4801F012F934
:1023C0000DB1012D00D104E040F27E71054801F00D
:1023D00009F90DB9606A70BDA06AFCE700400440CD
:1023E000008004409009000000C00340F0B504469E
:1023F0000B461546194660003B4A102901D3103997
:10240000401C52F820604FEA410C032707FA0CF7F2
:10241000BE4342F8206052F820604F0005FA07F7EB
:102420003E4342F82060F0BDF0B504460B46154629
:10243000194660002C4A4032102901D31039401C43
:1024400052F820604FEA410C032707FA0CF7BE430D
:1024500042F8206052F820604F0005FA07F73E432B
:1024600042F82060F0BD30B50B461F496831012AA3
:1024700007D151F8204001259D402C4341F82040D0
:1024800006E051F8204001259D40AC4341F8204032
:1024900030BD012806D11449896A41F00801124A69
:1024A000916206E028B91049896A21F008010E4AB4
:1024B00091627047012800D1052201B90A220A4B16
:1024C000DA67704710B50446A27861782078FFF784
:1024D0008DFFE27861782078FFF7A6FF2279617896
:1024E0002078FFF7C0FF10BD00C002402DE9F04F7B
:1024F0008BB00446894600200990F948844204D1F3
:102500000620FDF741FE074616E0F648844204D156
:102510000820FDF739FE07460EE0F348844204D157
:102520003020FDF731FE074606E0F048844203D133
:102530003220FDF729FE07463F094FF0FF3B002000
:102540000790069000252E464FF001084DE0002030
:10255000089040E00898404400FB09FC0020010777
:1025600041EA171138070022A0FB083E01FB08E1F1
:1025700000FB02106246CDE900300023DDE90001D6
:10258000FDF762FECDE9040104980390DDF814A084
:102590000398B0F1004F04D90398404203900AF128
:1025A000010ABAF1000F02D0BAF5803F00D90FE05E
:1025B000039858450BD2DDF80CB000265546089814
:1025C0000790CDF81880BBF1000F00D106E000BFE6
:1025D0000898401C089008984045BBD300BFBBF149
:1025E000000F00D104E008F10108B8F10F0FAED9D7
:1025F00000BF002185EA01007140084302D10BB001
:10260000BDE8F08F3809069900FB01FC08460799E0
:1026100008440021A0FB052301FB053100FB061047
:102620000346CDE9002060460021FDF70DFE029033
:102630000298814503D90298A9EB000B02E00298A9
:10264000A0EB090B64200BFB00F0B0FBF9FBBBF126
:10265000030F32D2A348844216D1207B40F0800081
:102660002073280A40EA066020712570207B00F064
:102670007F002073F021069801EA0010079901F00D
:102680000F010843A06216E0207B40F08000207319
:10269000280A40EA066020712570207B00F07F0048
:1026A0002073F021069801EA0010079901F00F014C
:1026B000084384F828000120099009989FE770B525
:1026C00004460D468648844208D08648844205D098
:1026D0008548844202D08548844200D103E0CA2163
:1026E00083A000F07FFF687940B16879012805D0A8
:1026F0006879022802D06879032800D103E0CB2151
:102700007BA000F06FFFA87910B1A879012800D153
:1027100003E0CC2176A000F065FF287958B1287934
:10272000012808D02879022805D02879032802D06A
:102730002879042800D103E0CD216DA000F052FFDC
:102740006748844203D101210820FDF73AFD65481E
:10275000844223D1072020720020207200E02678D6
:10276000207D00F001000028F9D1802084F830009D
:1027700000BF207D00F020000028FAD0002084F85F
:102780003000606020732062207484F84C0084F86C
:10279000540084F85000267E267D1AE0072020721F
:1027A0000020207200E02678207D00F00100002843
:1027B000F9D1802084F8300000BF207D00F0200097
:1027C0000028FAD0002084F8300060602073206276
:1027D000267D4648844202D1002084F82400204609
:1027E0002968FFF783FE3F48844203D1207B00F035
:1027F000C00602E0207B00F0C006687930B10128F5
:1028000006D0022807D0032808D108E000BF09E05D
:1028100046F0010606E046F0020603E000BF46F07F
:10282000030600BF00BF2879C0B146F0080628792A
:10283000012806D0022806D0032807D004280BD18F
:1028400007E000BF09E046F0100606E046F020066B
:1028500003E046F0300600E000BF00BFA87928B1D1
:10286000012802D146F0040601E000BF00BF00BF0E
:102870001C48844201D1267300E0267370BD70B5F8
:1028800004460D461648844208D01648844205D0B6
:102890001548844202D01548844200D104E040F239
:1028A000EB3113A000F09EFE0DB1012D00D104E02C
:1028B0004FF47B710EA000F095FE012D2ED109483A
:1028C000844206D194F8300040F0800084F8300053
:1028D00032E094F8300040F0800084F830002BE0C3
:1028E00000C00040000001400080094000C00940D5
:1028F0002E2E5C2E2E5C2E2E5C2E2E5C4472697663
:102900006572735C736F757263655C6C706331378D
:1029100078785F756172742E63000000F748844216
:1029200005D194F83000002084F8300004E094F8D9
:102930003000002084F8300070BD10B50446F04827
:10294000844208D0ED48844205D0EE48844202D04B
:10295000ED48844200D105E04FF4CB71AFF2700036
:1029600000F040FE00212046FFF789FFE448844242
:1029700003D100210820FDF724FC10BD4FF41651AF
:10298000016003214171002101718171704770B5AF
:1029900004460D46DA48844208D0D848844205D01F
:1029A000D848844202D0D848844200D105E04FF490
:1029B000ED71AFF2C40000F015FED048844201D1A1
:1029C000257000E0257070BD10B50446CC488442E7
:1029D00008D0CA48844205D0CA48844202D0CA48B6
:1029E000844200D105E040F2F311AFF2FC0000F0A8
:1029F000F9FDC248844201D1207810BD2078FCE75F
:102A00002DE9FF5F80468A46934657465C46039809
:102A1000012825D1002520E04FF0FF3905E0B9F16C
:102A2000000F00D107E0A9F1010998F8140000F0A7
:102A300020000028F3D000BFB9F1000F00D10EE054
:102A4000102607E017F8011B4046FFF7A0FF761E8F
:102A5000641E6D1C0EB1002CF4D1002CDCD117E0EB
:102A6000002512E098F8140000F0200000B90EE0F4
:102A7000102607E017F8011B4046FFF788FF641E89
:102A8000761E6D1C0EB1002CF4D1002CEAD100BFD3
:102A9000284604B0BDE8F09F2DE9F05F074689465F
:102AA00092469B464E465546BBF1010F1ED100246F
:102AB00019E04FF0FF3805E0B8F1000F00D106E053
:102AC000A8F10108387D00F001000028F4D000BF13
:102AD000B8F1000F00D108E03846FFF775FF06F89F
:102AE000010B6D1E641C002DE3D110E000240BE0EF
:102AF000387D00F0010000B908E03846FFF764FFB8
:102B000006F8010B641C6D1E002DF1D100BF20469C
:102B1000BDE8F09F10B504467948844208D0774854
:102B2000844205D07748844202D07748844200D15D
:102B300005E040F28521AFF2482000F053FD6F48D8
:102B4000844204D1207B40F04000207303E0207BCE
:102B500040F04000207310BD2DE9F04104460D46C1
:102B600017466748844208D06448844205D06548C7
:102B7000844202D06448844200D105E04FF42B71B6
:102B8000AFF2942000F02EFD0FB1012F00D105E02F
:102B900040F2AD21AFF2A82000F024FD072D15D2A0
:102BA000DFE805F00406080A0C0E110001260DE00E
:102BB00002260BE0042609E0082607E0802605E04F
:102BC0004FF4807602E04FF4007600BF00BF4B4820
:102BD000844214D15DB1012D09D0022D07D0052DFD
:102BE00005D0062D03D0032D01D0042D00D116E011
:102BF00040F2C921AFF2083000F0F4FC0FE03DB123
:102C0000012D05D0022D03D0052D01D0062D00D1B8
:102C100005E040F2CD21AFF2283000F0E3FC012FB7
:102C20000AD13648844203D160683043606013E0C3
:102C30006068304360600FE03048844206D16068CD
:102C400040F28F31B1430840606005E0606840F2B7
:102C50000731B14308406060BDE8F08110B504461B
:102C60002748844208D02548844205D0254884421C
:102C700002D02548844200D105E040F2FB21AFF2AA
:102C8000903000F0AFFC1D48844201D1007D10BDA2
:102C9000207DFCE710B504461948844208D0174847
:102CA000844205D01748844202D01748844200D19C
:102CB00005E040F21231AFF2C83000F093FCA0689A
:102CC00040F2CF31084010BD0146087D00F04000C1
:102CD00008B1002070470120FCE770B506460C469D
:102CE00000250748864208D00448864205D005489A
:102CF000864202D00448864208D10DE0000001401F
:102D000000C000400080094000C009404FF44E71EF
:102D1000AFF2244000F066FCE07840B1E078012892
:102D200005D0E078022802D0E078032800D105E041
:102D300040F23931AFF2484000F054FCA07810B1B5
:102D4000A078012800D105E040F23A31AFF26040AE
:102D500000F048FC207810B12078012800D105E06F
:102D600040F23B31AFF2784000F03CFC607810B1AB
:102D70006078012800D105E04FF44F71AFF2904028
:102D800000F030FC45F00105E07830B1012806D0B4
:102D9000022807D0032808D108E000BF09E045F069
:102DA000400506E045F0800503E000BF45F0C005A2
:102DB00000BF00BF6078012801D145F004052078EC
:102DC000012801D145F00205A078012801D145F084
:102DD00008054948864203D105F0CF00307202E071
:102DE00005F0CF00307270BD00218170C1700121EB
:102DF0000170417070472DE9F04104460F461546B9
:102E00003E48844208D03C48844205D03C48844235
:102E100002D03C48844200D105E040F29331AFF249
:102E2000305000F0DFFB0DB1012D00D105E04FF473
:102E30006571AFF2445000F0D5FB0026012D09D199
:102E40003878012801D146F002067878012801D1AE
:102E500046F004062848844215D1012D10D1207B6C
:102E600040F080002073002020702071207B20F033
:102E7000800020731020A06246F00100206218E05C
:102E80000020206215E0012D11D1207B40F0800050
:102E90002073002020702071207B20F080002073A0
:102EA000102084F8280046F00100206201E0002094
:102EB0002062BDE8F08170B504460D460F4884429B
:102EC00008D00D48844205D00D48844202D00D48F8
:102ED000844200D105E04FF47571AFF2EC5000F080
:102EE00081FB0548844203D1206A2843206202E026
:102EF000206A2843206270BD0000014000C00040ED
:102F00000080094000C0094013B5044601231A4659
:102F100001A92046FFF774FD1CBD38B5044600200A
:102F2000009001231A4669462046FFF7B5FD9DF83B
:102F3000000038BD70B506460D462C4604E014F876
:102F4000011B3046FFF7E0FF20780028F7D170BD65
:102F500070B504460D4629462046FFF7EBFFE1A178
:102F60002046FFF7E7FF70BD2DE9F04105460C460E
:102F70000A2094FBF0F100FB1140C6B20A2094FB3A
:102F8000F0F00A2190FBF1F201FB1200C7B26420BD
:102F900094FBF0F090FBF1F201FB120000F0FF084F
:102FA00008F13000C1B22846FFF7AEFF07F130004C
:102FB000C1B22846FFF7A8FF06F13000C1B228468B
:102FC000FFF7A2FFBDE8F0812DE9F04705460C466A
:102FD0000A2094FBF0F100FB1140C6B20A2094FBDA
:102FE000F0F00A2190FBF1F201FB1200C7B264205D
:102FF00094FBF0F090FBF1F201FB120000F0FF08EF
:103000004FF47A7094FBF0F090FBF1F201FB1200A8
:1030100000F0FF0942F2107094FBF0F090FBF1F227
:1030200001FB120000F0FF0A0AF13000C1B228468D
:10303000FFF76AFF09F13000C1B22846FFF764FFCD
:1030400008F13000C1B22846FFF75EFF07F13000FB
:10305000C1B22846FFF758FF06F13000C1B228463A
:10306000FFF752FFBDE8F0872DE9F34F83B00C4620
:103070000A20B4FBF0F100FB1145B4FBF0F00A218B
:10308000B0FBF1F201FB12066420B4FBF0F0B0FBE0
:10309000F1F201FB12074FF47A70B4FBF0F0B0FBD1
:1030A000F1F201FB120842F21070B4FBF0F0B0FB39
:1030B000F1F201FB12098C48B4FBF0F0B0FBF1F225
:1030C00001FB120A8948B4FBF0F0B0FBF1F201FBFE
:1030D000120B8748B4FBF0F0B0FBF1F201FB1200D9
:1030E00002908448B4FBF0F0B0FBF1F201FB120057
:1030F00001908148B4FBF0F0B0FBF1F201FB12004B
:10310000009000983030C1B20398FFF7FDFE01989F
:103110003030C1B20398FFF7F7FE02983030C1B2E9
:103120000398FFF7F1FE0BF13000C1B20398FFF7EF
:10313000EBFE0AF13000C1B20398FFF7E5FE09F19A
:103140003000C1B20398FFF7DFFE08F13000C1B2D2
:103150000398FFF7D9FE07F13000C1B20398FFF7DB
:10316000D3FE06F13000C1B20398FFF7CDFE05F1A2
:103170003000C1B20398FFF7C7FE05B0BDE8F08F7D
:103180002DE9F04107460D465CA13846FFF7D2FE17
:10319000012600BFB00045FA00F000F00F04092C32
:1031A00002DD04F1370001E004F13000C1B238461D
:1031B000FFF7AAFE301EA6F10101CEB2EAD1BDE8AA
:1031C000F0812DE9F04107460D464CA13846FFF746
:1031D000B1FE032600BFB00045FA00F000F00F0476
:1031E000092C02DD04F1370001E004F13000C1B226
:1031F0003846FFF789FE301EA6F10101CEB2EAD1B2
:10320000BDE8F0812DE9F04107460D463BA1384667
:10321000FFF790FE072600BFB00025FA00F000F08F
:103220000F04092C02DD04F1370001E004F1300045
:10323000C1B23846FFF768FE301EA6F10101CEB2DA
:10324000EAD1BDE8F0811FB501208DF80200002011
:103250008DF804008DF8030002208DF80100002095
:103260008DF800006846FFF72DF903208DF8010066
:103270006846FFF727F902A8FFF780FB4FF4E1301B
:10328000029002A91E48FFF71AFA01211C48FFF715
:10329000F6FAAFF25F301B490860AFF24B301A49C3
:1032A0000860AFF29B3019490860AFF22B10184943
:1032B0000860AFF2F10017490860AFF2B700164995
:1032C0000860AFF25B3015490860AFF20330144973
:1032D0000860AFF26B2013490860AFF2C1301249A9
:1032E00008601FBD0A0D0000A086010040420F00CB
:1032F0008096980000E1F50500CA9A3B30780000FE
:1033000000C0004010C0072014C0072018C00720CC
:1033100028C007202CC0072030C007201CC0072071
:1033200020C0072024C0072034C0072030B5024643
:103330000B46AD48407BAD4C647BA04201D00120E0
:1033400000E00020A84C2468A84D2D68AC4201D0B4
:10335000012400E000242043A34C247BA34D2D7BBB
:10336000AC4201D0012400E0002420439E4CA47B09
:103370009E4DAD7BAC4201D0012400E000242043EF
:1033800008B1002030BD00211BE09748001D445CBF
:103390009648001D405C844201D0012000E00020DE
:1033A000914C0834655C914C0834645CA54201D0B2
:1033B000012400E00024204308B10020E2E7481C7B
:1033C000C1B20429E1DB0120DCE770B5044688A125
:1033D0008C488D4A126890478A488C4A2168126846
:1033E000904787A187488A4A1268904789A18548F3
:1033F000854A12689047217B8248844A1268904728
:1034000089A18048824A1268904789A17D487E4AF6
:1034100012689047A07B28B98AA17A487C4A126832
:10342000904704E08AA17748794A126890478CA1B6
:103430007448754A12689047607B28B98DA171481D
:10344000734A1268904704E091A16E48704A12686E
:10345000904796A16B486C4A126890472179607931
:1034600041EA0021A07941EA0041E07941EA0065A2
:1034700029466448654A1268904761A16148644AD8
:1034800012689047217A607A41EA0021A07A41EAE5
:103490000041E07A41EA006589A15A485A4A126817
:1034A000904729465748594A1268904754A15548B1
:1034B000574A1268904752A15248554A126890479D
:1034C00070BD10B503218348FEF7BEFDC4B204F001
:1034D000010000281BD045497E48FEF70AFD7EA169
:1034E00048484B4A126890474048FFF76EFF3F49F3
:1034F0003D48FFF71BFF28B17CA14248444A1268AF
:10350000904704E080A13F48414A1268904710BDAF
:1035100001203549487341F23420086008200873BF
:103520000020887312213048C1718171417101718D
:103530003421C17281724172017200202B4948739B
:1035400008600873887300212848C1718171417136
:103550000171C171817141710172704710B570497B
:1035600028482B4A1268904710BDFFF76CFEFFF702
:10357000F5FF6C495748FDF75CF8012203215548D7
:10358000FEF732FE012200215248FEF7A8FD01227B
:1035900011465048FEF7A3FD192001218140420940
:1035A000920002F1E022C2F8001100BF02215E4841
:1035B000FEF7EBFDFFF7ACFF5CA11248144A12685E
:1035C00090470948FFF701FF07494248FEF771FBA2
:1035D0004048406840F010003E49486000BFFEE7A8
:1035E000FFF7C3FF00BFFEE7B8C10720C8C107202F
:1035F0004D6573736167652049443A20202020207F
:103600000000000000C0004010C0072030C00720AC
:1036100014C007204D657373616765206C656E6724
:1036200074683A20000000002042595445530000BD
:103630004D65737361676520747970653A20202049
:103640000000000044415441204652414D452000B5
:1036500052454D4F5445204652414D4520000000F3
:103660004D65737361676520666F726D61743A2092
:10367000000000005354414E44415244204944202C
:103680004652414D4520464F524D415400000000E6
:10369000455854454E444544204944204652414DE6
:1036A0004520464F524D4154000000004D65737354
:1036B0006167652064617461413A20200000000068
:1036C0004D6573736167652064617461423A2020BF
:1036D000000000000040044052656365697665643F
:1036E000206275666665723A0000000053656C667C
:1036F00020746573742069732053554343455353B5
:1037000046554C212121000053656C662074657379
:1037100074206973204641494C212121000000009A
:1037200038C0072048E8010000C003405472616EB1
:10373000736D6974746564206275666665723A00BB
:10374000064C074D06E0E06840F0010394E80700EE
:1037500098471034AC42F6D3FCF7BCFCC8370000E5
:10376000F837000070B58C1810F8015B15F00703EE
:1037700001D110F8013B2A1106D110F8012B03E00A
:1037800010F8016B01F8016B5B1EF9D12B0705D412
:103790000023521E0DD401F8013BFAE710F8013B5B
:1037A000CB1A921C03E013F8015B01F8015B521E77
:1037B000F9D5A142D8D3002070BD002001E001C19D
:1037C000121F002AFBD17047F837000000C0072005
:1037D000B801000064370000F83700000000001056
:1037E00000020000BA370000CC380000B8C1072042
:1037F00020000000BA370000110434E1F5050A4C3E
:103800002A0118210A0D48656C6C6F204E58502013
:1038100053656D69636F6E647563746F7273200AAC
:103820000D43414E15180D6C662D7465737420643C
:10383000656D6F15581109202D204D43553A204CC8
:10384000504331377878137814436F72653A2041CA
:10385000524D20434F525445582D4D331A18156D73
:103860006D756E6963617465207669613A205541B2
:1038700052543019280A3131353230302062706CA0
:10388000180A557365206F6E6C79207528123120E7
:103890007065726970686572616C7320746F2080E6
:1038A00068140A0D54686973206578616D706C65E1
:1038B00020757365641B39A5490A0F266D6F646511
:0C38C0000A0DFE092501A30A0D000000FE
:04000005000000CD2A
:00000001FF
